{
  "_format": "hh-sol-artifact-1",
  "contractName": "DrainAttacker",
  "sourceName": "simulation/contracts/DrainAttacker.sol",
  "abi": [
    {
      "inputs": [],
      "stateMutability": "nonpayable",
      "type": "constructor"
    },
    {
      "inputs": [
        {
          "internalType": "address",
          "name": "token",
          "type": "address"
        },
        {
          "internalType": "address",
          "name": "victim",
          "type": "address"
        }
      ],
      "name": "drainAll",
      "outputs": [],
      "stateMutability": "nonpayable",
      "type": "function"
    },
    {
      "inputs": [],
      "name": "owner",
      "outputs": [
        {
          "internalType": "address",
          "name": "",
          "type": "address"
        }
      ],
      "stateMutability": "view",
      "type": "function"
    }
  ],
  "bytecode": "0x608060405234801561001057600080fd5b50336000806101000a81548173ffffffffffffffffffffffffffffffffffffffff021916908373ffffffffffffffffffffffffffffffffffffffff1602179055506106f5806100606000396000f3fe608060405234801561001057600080fd5b50600436106100365760003560e01c80638da5cb5b1461003b578063f218e62d14610059575b600080fd5b610043610075565b60405161005091906103a7565b60405180910390f35b610073600480360381019061006e91906103f3565b610099565b005b60008054906101000a900473ffffffffffffffffffffffffffffffffffffffff1681565b60008054906101000a900473ffffffffffffffffffffffffffffffffffffffff1673ffffffffffffffffffffffffffffffffffffffff163373ffffffffffffffffffffffffffffffffffffffff1614610127576040517f08c379a000000000000000000000000000000000000000000000000000000000815260040161011e90610490565b60405180910390fd5b60008273ffffffffffffffffffffffffffffffffffffffff1663dd62ed3e83306040518363ffffffff1660e01b81526004016101649291906104b0565b602060405180830381865afa158015610181573d6000803e3d6000fd5b505050506040513d601f19601f820116820180604052508101906101a5919061050f565b9050600081116101ea576040517f08c379a00000000000000000000000000000000000000000000000000000000081526004016101e190610588565b60405180910390fd5b60008373ffffffffffffffffffffffffffffffffffffffff166370a08231846040518263ffffffff1660e01b815260040161022591906103a7565b602060405180830381865afa158015610242573d6000803e3d6000fd5b505050506040513d601f19601f82011682018060405250810190610266919061050f565b905060008183106102775781610279565b825b9050600081116102be576040517f08c379a00000000000000000000000000000000000000000000000000000000081526004016102b5906105f4565b60405180910390fd5b8473ffffffffffffffffffffffffffffffffffffffff166323b872dd8560008054906101000a900473ffffffffffffffffffffffffffffffffffffffff16846040518463ffffffff1660e01b815260040161031b93929190610623565b6020604051808303816000875af115801561033a573d6000803e3d6000fd5b505050506040513d601f19601f8201168201806040525081019061035e9190610692565b505050505050565b600073ffffffffffffffffffffffffffffffffffffffff82169050919050565b600061039182610366565b9050919050565b6103a181610386565b82525050565b60006020820190506103bc6000830184610398565b92915050565b600080fd5b6103d081610386565b81146103db57600080fd5b50565b6000813590506103ed816103c7565b92915050565b6000806040838503121561040a576104096103c2565b5b6000610418858286016103de565b9250506020610429858286016103de565b9150509250929050565b600082825260208201905092915050565b7f4e6f7420617574686f72697a6564000000000000000000000000000000000000600082015250565b600061047a600e83610433565b915061048582610444565b602082019050919050565b600060208201905081810360008301526104a98161046d565b9050919050565b60006040820190506104c56000830185610398565b6104d26020830184610398565b9392505050565b6000819050919050565b6104ec816104d9565b81146104f757600080fd5b50565b600081519050610509816104e3565b92915050565b600060208284031215610525576105246103c2565b5b6000610533848285016104fa565b91505092915050565b7f4e6f20616c6c6f77616e63650000000000000000000000000000000000000000600082015250565b6000610572600c83610433565b915061057d8261053c565b602082019050919050565b600060208201905081810360008301526105a181610565565b9050919050565b7f4e6f7468696e6720746f20647261696e00000000000000000000000000000000600082015250565b60006105de601083610433565b91506105e9826105a8565b602082019050919050565b6000602082019050818103600083015261060d816105d1565b9050919050565b61061d816104d9565b82525050565b60006060820190506106386000830186610398565b6106456020830185610398565b6106526040830184610614565b949350505050565b60008115159050919050565b61066f8161065a565b811461067a57600080fd5b50565b60008151905061068c81610666565b92915050565b6000602082840312156106a8576106a76103c2565b5b60006106b68482850161067d565b9150509291505056fea2646970667358221220de9b221cf6fb502bd6ec308c01f22fa9be79908577aaefaefd62749cb222dc3464736f6c63430008140033",
  "linkReferences": {},
  "deployedLinkReferences": {}
}